{
  "contractName": "PhotoSharingNFT",
  "abi": [
    {
      "inputs": [],
      "stateMutability": "nonpayable",
      "type": "constructor"
    },
    {
      "anonymous": false,
      "inputs": [
        {
          "indexed": true,
          "internalType": "address",
          "name": "owner",
          "type": "address"
        },
        {
          "indexed": true,
          "internalType": "address",
          "name": "approved",
          "type": "address"
        },
        {
          "indexed": true,
          "internalType": "uint256",
          "name": "tokenId",
          "type": "uint256"
        }
      ],
      "name": "Approval",
      "type": "event"
    },
    {
      "anonymous": false,
      "inputs": [
        {
          "indexed": true,
          "internalType": "address",
          "name": "owner",
          "type": "address"
        },
        {
          "indexed": true,
          "internalType": "address",
          "name": "operator",
          "type": "address"
        },
        {
          "indexed": false,
          "internalType": "bool",
          "name": "approved",
          "type": "bool"
        }
      ],
      "name": "ApprovalForAll",
      "type": "event"
    },
    {
      "anonymous": false,
      "inputs": [
        {
          "indexed": false,
          "internalType": "address",
          "name": "account",
          "type": "address"
        }
      ],
      "name": "Paused",
      "type": "event"
    },
    {
      "anonymous": false,
      "inputs": [
        {
          "indexed": true,
          "internalType": "address",
          "name": "from",
          "type": "address"
        },
        {
          "indexed": true,
          "internalType": "address",
          "name": "to",
          "type": "address"
        },
        {
          "indexed": true,
          "internalType": "uint256",
          "name": "tokenId",
          "type": "uint256"
        }
      ],
      "name": "Transfer",
      "type": "event"
    },
    {
      "anonymous": false,
      "inputs": [
        {
          "indexed": false,
          "internalType": "address",
          "name": "account",
          "type": "address"
        }
      ],
      "name": "Unpaused",
      "type": "event"
    },
    {
      "inputs": [
        {
          "internalType": "address",
          "name": "to",
          "type": "address"
        },
        {
          "internalType": "uint256",
          "name": "tokenId",
          "type": "uint256"
        }
      ],
      "name": "approve",
      "outputs": [],
      "stateMutability": "nonpayable",
      "type": "function"
    },
    {
      "inputs": [
        {
          "internalType": "address",
          "name": "owner",
          "type": "address"
        }
      ],
      "name": "balanceOf",
      "outputs": [
        {
          "internalType": "uint256",
          "name": "",
          "type": "uint256"
        }
      ],
      "stateMutability": "view",
      "type": "function"
    },
    {
      "inputs": [
        {
          "internalType": "uint256",
          "name": "tokenId",
          "type": "uint256"
        }
      ],
      "name": "burn",
      "outputs": [],
      "stateMutability": "nonpayable",
      "type": "function"
    },
    {
      "inputs": [
        {
          "internalType": "uint256",
          "name": "tokenId",
          "type": "uint256"
        }
      ],
      "name": "getApproved",
      "outputs": [
        {
          "internalType": "address",
          "name": "",
          "type": "address"
        }
      ],
      "stateMutability": "view",
      "type": "function"
    },
    {
      "inputs": [
        {
          "internalType": "address",
          "name": "owner",
          "type": "address"
        },
        {
          "internalType": "address",
          "name": "operator",
          "type": "address"
        }
      ],
      "name": "isApprovedForAll",
      "outputs": [
        {
          "internalType": "bool",
          "name": "",
          "type": "bool"
        }
      ],
      "stateMutability": "view",
      "type": "function"
    },
    {
      "inputs": [],
      "name": "name",
      "outputs": [
        {
          "internalType": "string",
          "name": "",
          "type": "string"
        }
      ],
      "stateMutability": "view",
      "type": "function"
    },
    {
      "inputs": [
        {
          "internalType": "uint256",
          "name": "tokenId",
          "type": "uint256"
        }
      ],
      "name": "ownerOf",
      "outputs": [
        {
          "internalType": "address",
          "name": "",
          "type": "address"
        }
      ],
      "stateMutability": "view",
      "type": "function"
    },
    {
      "inputs": [],
      "name": "paused",
      "outputs": [
        {
          "internalType": "bool",
          "name": "",
          "type": "bool"
        }
      ],
      "stateMutability": "view",
      "type": "function"
    },
    {
      "inputs": [
        {
          "internalType": "address",
          "name": "from",
          "type": "address"
        },
        {
          "internalType": "address",
          "name": "to",
          "type": "address"
        },
        {
          "internalType": "uint256",
          "name": "tokenId",
          "type": "uint256"
        }
      ],
      "name": "safeTransferFrom",
      "outputs": [],
      "stateMutability": "nonpayable",
      "type": "function"
    },
    {
      "inputs": [
        {
          "internalType": "address",
          "name": "from",
          "type": "address"
        },
        {
          "internalType": "address",
          "name": "to",
          "type": "address"
        },
        {
          "internalType": "uint256",
          "name": "tokenId",
          "type": "uint256"
        },
        {
          "internalType": "bytes",
          "name": "data",
          "type": "bytes"
        }
      ],
      "name": "safeTransferFrom",
      "outputs": [],
      "stateMutability": "nonpayable",
      "type": "function"
    },
    {
      "inputs": [
        {
          "internalType": "address",
          "name": "operator",
          "type": "address"
        },
        {
          "internalType": "bool",
          "name": "approved",
          "type": "bool"
        }
      ],
      "name": "setApprovalForAll",
      "outputs": [],
      "stateMutability": "nonpayable",
      "type": "function"
    },
    {
      "inputs": [],
      "name": "symbol",
      "outputs": [
        {
          "internalType": "string",
          "name": "",
          "type": "string"
        }
      ],
      "stateMutability": "view",
      "type": "function"
    },
    {
      "inputs": [
        {
          "internalType": "uint256",
          "name": "index",
          "type": "uint256"
        }
      ],
      "name": "tokenByIndex",
      "outputs": [
        {
          "internalType": "uint256",
          "name": "",
          "type": "uint256"
        }
      ],
      "stateMutability": "view",
      "type": "function"
    },
    {
      "inputs": [
        {
          "internalType": "address",
          "name": "owner",
          "type": "address"
        },
        {
          "internalType": "uint256",
          "name": "index",
          "type": "uint256"
        }
      ],
      "name": "tokenOfOwnerByIndex",
      "outputs": [
        {
          "internalType": "uint256",
          "name": "",
          "type": "uint256"
        }
      ],
      "stateMutability": "view",
      "type": "function"
    },
    {
      "inputs": [],
      "name": "totalSupply",
      "outputs": [
        {
          "internalType": "uint256",
          "name": "",
          "type": "uint256"
        }
      ],
      "stateMutability": "view",
      "type": "function"
    },
    {
      "inputs": [
        {
          "internalType": "address",
          "name": "from",
          "type": "address"
        },
        {
          "internalType": "address",
          "name": "to",
          "type": "address"
        },
        {
          "internalType": "uint256",
          "name": "tokenId",
          "type": "uint256"
        }
      ],
      "name": "transferFrom",
      "outputs": [],
      "stateMutability": "nonpayable",
      "type": "function"
    },
    {
      "inputs": [
        {
          "internalType": "string",
          "name": "name",
          "type": "string"
        }
      ],
      "name": "register",
      "outputs": [],
      "stateMutability": "nonpayable",
      "type": "function"
    },
    {
      "inputs": [],
      "name": "unregister",
      "outputs": [],
      "stateMutability": "nonpayable",
      "type": "function"
    },
    {
      "inputs": [],
      "name": "getUsername",
      "outputs": [
        {
          "internalType": "string",
          "name": "",
          "type": "string"
        }
      ],
      "stateMutability": "view",
      "type": "function"
    },
    {
      "inputs": [],
      "name": "pauseContract",
      "outputs": [],
      "stateMutability": "nonpayable",
      "type": "function"
    },
    {
      "inputs": [],
      "name": "unpauseContract",
      "outputs": [],
      "stateMutability": "nonpayable",
      "type": "function"
    },
    {
      "inputs": [
        {
          "internalType": "string",
          "name": "uri",
          "type": "string"
        },
        {
          "internalType": "string",
          "name": "name",
          "type": "string"
        },
        {
          "internalType": "string",
          "name": "description",
          "type": "string"
        }
      ],
      "name": "uploadPost",
      "outputs": [
        {
          "internalType": "uint256",
          "name": "",
          "type": "uint256"
        }
      ],
      "stateMutability": "nonpayable",
      "type": "function"
    },
    {
      "inputs": [
        {
          "internalType": "uint256",
          "name": "tokenId",
          "type": "uint256"
        },
        {
          "internalType": "bool",
          "name": "val",
          "type": "bool"
        }
      ],
      "name": "toggleSale",
      "outputs": [],
      "stateMutability": "nonpayable",
      "type": "function"
    },
    {
      "inputs": [
        {
          "internalType": "uint256",
          "name": "tokenId",
          "type": "uint256"
        },
        {
          "internalType": "uint256",
          "name": "amt",
          "type": "uint256"
        }
      ],
      "name": "sellNFT",
      "outputs": [],
      "stateMutability": "nonpayable",
      "type": "function"
    },
    {
      "inputs": [
        {
          "internalType": "uint256",
          "name": "tokenId",
          "type": "uint256"
        }
      ],
      "name": "buyNFT",
      "outputs": [],
      "stateMutability": "payable",
      "type": "function"
    },
    {
      "inputs": [
        {
          "internalType": "uint256",
          "name": "unique_score",
          "type": "uint256"
        },
        {
          "internalType": "uint256",
          "name": "tokenId",
          "type": "uint256"
        }
      ],
      "name": "assignUniqueScore",
      "outputs": [],
      "stateMutability": "nonpayable",
      "type": "function"
    },
    {
      "inputs": [
        {
          "internalType": "uint256",
          "name": "tokenId",
          "type": "uint256"
        }
      ],
      "name": "getPostData",
      "outputs": [
        {
          "components": [
            {
              "internalType": "string",
              "name": "name",
              "type": "string"
            },
            {
              "internalType": "address",
              "name": "owner",
              "type": "address"
            },
            {
              "internalType": "string",
              "name": "uri",
              "type": "string"
            },
            {
              "internalType": "uint256",
              "name": "tokenId",
              "type": "uint256"
            },
            {
              "internalType": "uint256",
              "name": "price",
              "type": "uint256"
            },
            {
              "internalType": "bool",
              "name": "forSale",
              "type": "bool"
            },
            {
              "internalType": "uint256",
              "name": "uniqueScore",
              "type": "uint256"
            },
            {
              "internalType": "uint256",
              "name": "timestamp",
              "type": "uint256"
            },
            {
              "internalType": "string",
              "name": "description",
              "type": "string"
            }
          ],
          "internalType": "struct PhotoSharingNFT.Post",
          "name": "",
          "type": "tuple"
        }
      ],
      "stateMutability": "view",
      "type": "function"
    },
    {
      "inputs": [
        {
          "internalType": "uint256",
          "name": "id",
          "type": "uint256"
        }
      ],
      "name": "getOwner",
      "outputs": [
        {
          "internalType": "address",
          "name": "",
          "type": "address"
        }
      ],
      "stateMutability": "view",
      "type": "function"
    },
    {
      "inputs": [
        {
          "internalType": "uint256",
          "name": "tokenId",
          "type": "uint256"
        }
      ],
      "name": "tokenURI",
      "outputs": [
        {
          "internalType": "string",
          "name": "",
          "type": "string"
        }
      ],
      "stateMutability": "view",
      "type": "function"
    },
    {
      "inputs": [
        {
          "internalType": "bytes4",
          "name": "interfaceId",
          "type": "bytes4"
        }
      ],
      "name": "supportsInterface",
      "outputs": [
        {
          "internalType": "bool",
          "name": "",
          "type": "bool"
        }
      ],
      "stateMutability": "view",
      "type": "function"
    }
  ],
  "bytecode": "0x60806040523480156200001157600080fd5b506040518060400160405280600f81526020017f50686f746f53686172696e674e465400000000000000000000000000000000008152506040518060400160405280600381526020017f53544b00000000000000000000000000000000000000000000000000000000008152508160009080519060200190620000969291906200022b565b508060019080519060200190620000af9291906200022b565b5050506000600b60006101000a81548160ff02191690831515021790555033600b60016101000a81548173ffffffffffffffffffffffffffffffffffffffff021916908373ffffffffffffffffffffffffffffffffffffffff1602179055506040518060400160405280600581526020017f61646d696e000000000000000000000000000000000000000000000000000000815250600c6000600b60019054906101000a900473ffffffffffffffffffffffffffffffffffffffff1673ffffffffffffffffffffffffffffffffffffffff1673ffffffffffffffffffffffffffffffffffffffff1681526020019081526020016000206000019080519060200190620001bd9291906200022b565b506001600d6000600b60019054906101000a900473ffffffffffffffffffffffffffffffffffffffff1673ffffffffffffffffffffffffffffffffffffffff1673ffffffffffffffffffffffffffffffffffffffff1681526020019081526020016000208190555062000340565b8280546200023990620002db565b90600052602060002090601f0160209004810192826200025d5760008555620002a9565b82601f106200027857805160ff1916838001178555620002a9565b82800160010185558215620002a9579182015b82811115620002a85782518255916020019190600101906200028b565b5b509050620002b89190620002bc565b5090565b5b80821115620002d7576000816000905550600101620002bd565b5090565b60006002820490506001821680620002f457607f821691505b602082108114156200030b576200030a62000311565b5b50919050565b7f4e487b7100000000000000000000000000000000000000000000000000000000600052602260045260246000fd5b6151cf80620003506000396000f3fe6080604052600436106101cd5760003560e01c80635c975abb116100f7578063a22cb46511610095578063c87b56dd11610064578063c87b56dd14610689578063e79a198f146106c6578063e985e9c5146106dd578063f2c298be1461071a576101cd565b8063a22cb465146105e3578063b33712c51461060c578063b88d4fde14610623578063c41a360a1461064c576101cd565b80636e4d2b75116100d15780636e4d2b751461051557806370a082311461055257806391a48a1e1461058f57806395d89b41146105b8576101cd565b80635c975abb146104825780636352211e146104ad578063681f3e6d146104ea576101cd565b806323b872dd1161016f578063439766ce1161013e578063439766ce146103d55780634f6ccce7146103ec5780634f8f02561461042957806351ed828814610466576101cd565b806323b872dd1461031d5780632f745c591461034657806342842e0e1461038357806342966c68146103ac576101cd565b8063081812fc116101ab578063081812fc14610263578063095ea7b3146102a057806315a16569146102c957806318160ddd146102f2576101cd565b806301ffc9a7146101d2578063065eb1171461020f57806306fdde0314610238575b600080fd5b3480156101de57600080fd5b506101f960048036038101906101f49190613ddc565b610743565b6040516102069190614583565b60405180910390f35b34801561021b57600080fd5b5061023660048036038101906102319190613f2f565b610755565b005b34801561024457600080fd5b5061024d6108e1565b60405161025a919061459e565b60405180910390f35b34801561026f57600080fd5b5061028a60048036038101906102859190613f06565b610973565b604051610297919061451c565b60405180910390f35b3480156102ac57600080fd5b506102c760048036038101906102c29190613da0565b6109b9565b005b3480156102d557600080fd5b506102f060048036038101906102eb9190613f6b565b610ad1565b005b3480156102fe57600080fd5b50610307610b7f565b60405161031491906148e2565b60405180910390f35b34801561032957600080fd5b50610344600480360381019061033f9190613c9a565b610b8c565b005b34801561035257600080fd5b5061036d60048036038101906103689190613da0565b610bec565b60405161037a91906148e2565b60405180910390f35b34801561038f57600080fd5b506103aa60048036038101906103a59190613c9a565b610c91565b005b3480156103b857600080fd5b506103d360048036038101906103ce9190613f06565b610cb1565b005b3480156103e157600080fd5b506103ea610d0d565b005b3480156103f857600080fd5b50610413600480360381019061040e9190613f06565b610d71565b60405161042091906148e2565b60405180910390f35b34801561043557600080fd5b50610450600480360381019061044b9190613f06565b610e08565b60405161045d91906148c0565b60405180910390f35b610480600480360381019061047b9190613f06565b6110ba565b005b34801561048e57600080fd5b506104976113e6565b6040516104a49190614583565b60405180910390f35b3480156104b957600080fd5b506104d460048036038101906104cf9190613f06565b6113fd565b6040516104e1919061451c565b60405180910390f35b3480156104f657600080fd5b506104ff611484565b60405161050c919061459e565b60405180910390f35b34801561052157600080fd5b5061053c60048036038101906105379190613e6f565b6115dc565b60405161054991906148e2565b60405180910390f35b34801561055e57600080fd5b5061057960048036038101906105749190613c35565b6117d6565b60405161058691906148e2565b60405180910390f35b34801561059b57600080fd5b506105b660048036038101906105b19190613f6b565b61188e565b005b3480156105c457600080fd5b506105cd611ad1565b6040516105da919061459e565b60405180910390f35b3480156105ef57600080fd5b5061060a60048036038101906106059190613d64565b611b63565b005b34801561061857600080fd5b50610621611b79565b005b34801561062f57600080fd5b5061064a60048036038101906106459190613ce9565b611bdd565b005b34801561065857600080fd5b50610673600480360381019061066e9190613f06565b611c3f565b604051610680919061451c565b60405180910390f35b34801561069557600080fd5b506106b060048036038101906106ab9190613f06565b611c56565b6040516106bd919061459e565b60405180910390f35b3480156106d257600080fd5b506106db611c68565b005b3480156106e957600080fd5b5061070460048036038101906106ff9190613c5e565b611d1b565b6040516107119190614583565b60405180910390f35b34801561072657600080fd5b50610741600480360381019061073c9190613e2e565b611daf565b005b600061074e82611ed7565b9050919050565b6001600d60003373ffffffffffffffffffffffffffffffffffffffff1673ffffffffffffffffffffffffffffffffffffffff16815260200190815260200160002054146107a157600080fd5b600e82815481106107db577f4e487b7100000000000000000000000000000000000000000000000000000000600052603260045260246000fd5b906000526020600020906009020160010160009054906101000a900473ffffffffffffffffffffffffffffffffffffffff1673ffffffffffffffffffffffffffffffffffffffff163373ffffffffffffffffffffffffffffffffffffffff161461087a576040517f08c379a0000000000000000000000000000000000000000000000000000000008152600401610871906146c0565b60405180910390fd5b80600e83815481106108b5577f4e487b7100000000000000000000000000000000000000000000000000000000600052603260045260246000fd5b906000526020600020906009020160050160006101000a81548160ff0219169083151502179055505050565b6060600080546108f090614ac2565b80601f016020809104026020016040519081016040528092919081815260200182805461091c90614ac2565b80156109695780601f1061093e57610100808354040283529160200191610969565b820191906000526020600020905b81548152906001019060200180831161094c57829003601f168201915b5050505050905090565b600061097e82611f51565b6004600083815260200190815260200160002060009054906101000a900473ffffffffffffffffffffffffffffffffffffffff169050919050565b60006109c4826113fd565b90508073ffffffffffffffffffffffffffffffffffffffff168373ffffffffffffffffffffffffffffffffffffffff161415610a35576040517f08c379a0000000000000000000000000000000000000000000000000000000008152600401610a2c90614800565b60405180910390fd5b8073ffffffffffffffffffffffffffffffffffffffff16610a54611f9c565b73ffffffffffffffffffffffffffffffffffffffff161480610a835750610a8281610a7d611f9c565b611d1b565b5b610ac2576040517f08c379a0000000000000000000000000000000000000000000000000000000008152600401610ab990614840565b60405180910390fd5b610acc8383611fa4565b505050565b600b60019054906101000a900473ffffffffffffffffffffffffffffffffffffffff1673ffffffffffffffffffffffffffffffffffffffff163373ffffffffffffffffffffffffffffffffffffffff1614610b2b57600080fd5b81600e8281548110610b66577f4e487b7100000000000000000000000000000000000000000000000000000000600052603260045260246000fd5b9060005260206000209060090201600601819055505050565b6000600880549050905090565b610b9d610b97611f9c565b8261205d565b610bdc576040517f08c379a0000000000000000000000000000000000000000000000000000000008152600401610bd3906145e0565b60405180910390fd5b610be78383836120f2565b505050565b6000610bf7836117d6565b8210610c38576040517f08c379a0000000000000000000000000000000000000000000000000000000008152600401610c2f90614600565b60405180910390fd5b600660008473ffffffffffffffffffffffffffffffffffffffff1673ffffffffffffffffffffffffffffffffffffffff168152602001908152602001600020600083815260200190815260200160002054905092915050565b610cac83838360405180602001604052806000815250611bdd565b505050565b610cc2610cbc611f9c565b8261205d565b610d01576040517f08c379a0000000000000000000000000000000000000000000000000000000008152600401610cf8906145e0565b60405180910390fd5b610d0a816123ec565b50565b600b60019054906101000a900473ffffffffffffffffffffffffffffffffffffffff1673ffffffffffffffffffffffffffffffffffffffff163373ffffffffffffffffffffffffffffffffffffffff1614610d6757600080fd5b610d6f6123f8565b565b6000610d7b610b7f565b8210610dbc576040517f08c379a0000000000000000000000000000000000000000000000000000000008152600401610db390614860565b60405180910390fd5b60088281548110610df6577f4e487b7100000000000000000000000000000000000000000000000000000000600052603260045260246000fd5b90600052602060002001549050919050565b610e106139b5565b600e8281548110610e4a577f4e487b7100000000000000000000000000000000000000000000000000000000600052603260045260246000fd5b906000526020600020906009020160405180610120016040529081600082018054610e7490614ac2565b80601f0160208091040260200160405190810160405280929190818152602001828054610ea090614ac2565b8015610eed5780601f10610ec257610100808354040283529160200191610eed565b820191906000526020600020905b815481529060010190602001808311610ed057829003601f168201915b505050505081526020016001820160009054906101000a900473ffffffffffffffffffffffffffffffffffffffff1673ffffffffffffffffffffffffffffffffffffffff1673ffffffffffffffffffffffffffffffffffffffff168152602001600282018054610f5c90614ac2565b80601f0160208091040260200160405190810160405280929190818152602001828054610f8890614ac2565b8015610fd55780601f10610faa57610100808354040283529160200191610fd5565b820191906000526020600020905b815481529060010190602001808311610fb857829003601f168201915b5050505050815260200160038201548152602001600482015481526020016005820160009054906101000a900460ff16151515158152602001600682015481526020016007820154815260200160088201805461103190614ac2565b80601f016020809104026020016040519081016040528092919081815260200182805461105d90614ac2565b80156110aa5780601f1061107f576101008083540402835291602001916110aa565b820191906000526020600020905b81548152906001019060200180831161108d57829003601f168201915b5050505050815250509050919050565b6001600d60003373ffffffffffffffffffffffffffffffffffffffff1673ffffffffffffffffffffffffffffffffffffffff168152602001908152602001600020541461110657600080fd5b600e8181548110611140577f4e487b7100000000000000000000000000000000000000000000000000000000600052603260045260246000fd5b906000526020600020906009020160010160009054906101000a900473ffffffffffffffffffffffffffffffffffffffff1673ffffffffffffffffffffffffffffffffffffffff163373ffffffffffffffffffffffffffffffffffffffff1614156111e0576040517f08c379a00000000000000000000000000000000000000000000000000000000081526004016111d790614820565b60405180910390fd5b6001600e828154811061121c577f4e487b7100000000000000000000000000000000000000000000000000000000600052603260045260246000fd5b906000526020600020906009020160050160006101000a81548160ff0219169083151502179055611282576040517f08c379a000000000000000000000000000000000000000000000000000000000815260040161127990614720565b60405180910390fd5b6000600e82815481106112be577f4e487b7100000000000000000000000000000000000000000000000000000000600052603260045260246000fd5b906000526020600020906009020160040154905060006112dd836113fd565b9050813414611321576040517f08c379a000000000000000000000000000000000000000000000000000000000815260040161131890614660565b60405180910390fd5b6000600e848154811061135d577f4e487b7100000000000000000000000000000000000000000000000000000000600052603260045260246000fd5b906000526020600020906009020160050160006101000a81548160ff02191690831515021790555061138f600f61245b565b61139a8133856120f2565b8073ffffffffffffffffffffffffffffffffffffffff166108fc349081150290604051600060405180830381858888f193505050501580156113e0573d6000803e3d6000fd5b50505050565b6000600b60009054906101000a900460ff16905090565b600080611409836124b7565b9050600073ffffffffffffffffffffffffffffffffffffffff168173ffffffffffffffffffffffffffffffffffffffff16141561147b576040517f08c379a0000000000000000000000000000000000000000000000000000000008152600401611472906147e0565b60405180910390fd5b80915050919050565b60606001600d60003373ffffffffffffffffffffffffffffffffffffffff1673ffffffffffffffffffffffffffffffffffffffff1681526020019081526020016000205414156115a057600c60003373ffffffffffffffffffffffffffffffffffffffff1673ffffffffffffffffffffffffffffffffffffffff168152602001908152602001600020600001805461151b90614ac2565b80601f016020809104026020016040519081016040528092919081815260200182805461154790614ac2565b80156115945780601f1061156957610100808354040283529160200191611594565b820191906000526020600020905b81548152906001019060200180831161157757829003601f168201915b505050505090506115d9565b6040518060400160405280601381526020017f75736572206e6f7420726567697374657265640000000000000000000000000081525090505b90565b60006001600d60003373ffffffffffffffffffffffffffffffffffffffff1673ffffffffffffffffffffffffffffffffffffffff168152602001908152602001600020541461162a57600080fd5b6000611636600f6124f4565b9050611642600f612502565b61164c3382612518565b6116568186612536565b60006040518061012001604052808681526020013373ffffffffffffffffffffffffffffffffffffffff1681526020018781526020018381526020016000815260200160001515815260200160008152602001428152602001858152509050600e81908060018154018082558091505060019003906000526020600020906009020160009091909190915060008201518160000190805190602001906116fd929190613a19565b5060208201518160010160006101000a81548173ffffffffffffffffffffffffffffffffffffffff021916908373ffffffffffffffffffffffffffffffffffffffff1602179055506040820151816002019080519060200190611761929190613a19565b50606082015181600301556080820151816004015560a08201518160050160006101000a81548160ff02191690831515021790555060c0820151816006015560e082015181600701556101008201518160080190805190602001906117c7929190613a19565b50505081925050509392505050565b60008073ffffffffffffffffffffffffffffffffffffffff168273ffffffffffffffffffffffffffffffffffffffff161415611847576040517f08c379a000000000000000000000000000000000000000000000000000000000815260040161183e90614760565b60405180910390fd5b600360008373ffffffffffffffffffffffffffffffffffffffff1673ffffffffffffffffffffffffffffffffffffffff168152602001908152602001600020549050919050565b6001600d60003373ffffffffffffffffffffffffffffffffffffffff1673ffffffffffffffffffffffffffffffffffffffff16815260200190815260200160002054146118da57600080fd5b600e8281548110611914577f4e487b7100000000000000000000000000000000000000000000000000000000600052603260045260246000fd5b906000526020600020906009020160010160009054906101000a900473ffffffffffffffffffffffffffffffffffffffff1673ffffffffffffffffffffffffffffffffffffffff163373ffffffffffffffffffffffffffffffffffffffff16146119b3576040517f08c379a00000000000000000000000000000000000000000000000000000000081526004016119aa906148a0565b60405180910390fd5b60001515600e83815481106119f1577f4e487b7100000000000000000000000000000000000000000000000000000000600052603260045260246000fd5b906000526020600020906009020160050160009054906101000a900460ff1615151415611a7d576001600e8381548110611a54577f4e487b7100000000000000000000000000000000000000000000000000000000600052603260045260246000fd5b906000526020600020906009020160050160006101000a81548160ff0219169083151502179055505b80600e8381548110611ab8577f4e487b7100000000000000000000000000000000000000000000000000000000600052603260045260246000fd5b9060005260206000209060090201600401819055505050565b606060018054611ae090614ac2565b80601f0160208091040260200160405190810160405280929190818152602001828054611b0c90614ac2565b8015611b595780601f10611b2e57610100808354040283529160200191611b59565b820191906000526020600020905b815481529060010190602001808311611b3c57829003601f168201915b5050505050905090565b611b75611b6e611f9c565b83836125aa565b5050565b600b60019054906101000a900473ffffffffffffffffffffffffffffffffffffffff1673ffffffffffffffffffffffffffffffffffffffff163373ffffffffffffffffffffffffffffffffffffffff1614611bd357600080fd5b611bdb612717565b565b611bee611be8611f9c565b8361205d565b611c2d576040517f08c379a0000000000000000000000000000000000000000000000000000000008152600401611c24906145e0565b60405180910390fd5b611c398484848461277a565b50505050565b600080611c4b836113fd565b905080915050919050565b6060611c61826127d6565b9050919050565b60003390506000600d60008373ffffffffffffffffffffffffffffffffffffffff1673ffffffffffffffffffffffffffffffffffffffff1681526020019081526020016000208190555060405180602001604052806000815250600c60008373ffffffffffffffffffffffffffffffffffffffff1673ffffffffffffffffffffffffffffffffffffffff1681526020019081526020016000206000019080519060200190611d17929190613a19565b5050565b6000600560008473ffffffffffffffffffffffffffffffffffffffff1673ffffffffffffffffffffffffffffffffffffffff16815260200190815260200160002060008373ffffffffffffffffffffffffffffffffffffffff1673ffffffffffffffffffffffffffffffffffffffff16815260200190815260200160002060009054906101000a900460ff16905092915050565b6001600d60003373ffffffffffffffffffffffffffffffffffffffff1673ffffffffffffffffffffffffffffffffffffffff168152602001908152602001600020541415611e32576040517f08c379a0000000000000000000000000000000000000000000000000000000008152600401611e29906147c0565b60405180910390fd5b60003390506001600d60008373ffffffffffffffffffffffffffffffffffffffff1673ffffffffffffffffffffffffffffffffffffffff1681526020019081526020016000208190555081600c60008373ffffffffffffffffffffffffffffffffffffffff1673ffffffffffffffffffffffffffffffffffffffff1681526020019081526020016000206000019080519060200190611ed2929190613a19565b505050565b60007f780e9d63000000000000000000000000000000000000000000000000000000007bffffffffffffffffffffffffffffffffffffffffffffffffffffffff1916827bffffffffffffffffffffffffffffffffffffffffffffffffffffffff19161480611f4a5750611f49826128e9565b5b9050919050565b611f5a816129cb565b611f99576040517f08c379a0000000000000000000000000000000000000000000000000000000008152600401611f90906147e0565b60405180910390fd5b50565b600033905090565b816004600083815260200190815260200160002060006101000a81548173ffffffffffffffffffffffffffffffffffffffff021916908373ffffffffffffffffffffffffffffffffffffffff160217905550808273ffffffffffffffffffffffffffffffffffffffff16612017836113fd565b73ffffffffffffffffffffffffffffffffffffffff167f8c5be1e5ebec7d5bd14f71427d1e84f3dd0314c0f7b2291e5b200ac8c7c3b92560405160405180910390a45050565b600080612069836113fd565b90508073ffffffffffffffffffffffffffffffffffffffff168473ffffffffffffffffffffffffffffffffffffffff1614806120ab57506120aa8185611d1b565b5b806120e957508373ffffffffffffffffffffffffffffffffffffffff166120d184610973565b73ffffffffffffffffffffffffffffffffffffffff16145b91505092915050565b8273ffffffffffffffffffffffffffffffffffffffff16612112826113fd565b73ffffffffffffffffffffffffffffffffffffffff1614612168576040517f08c379a000000000000000000000000000000000000000000000000000000000815260040161215f90614680565b60405180910390fd5b600073ffffffffffffffffffffffffffffffffffffffff168273ffffffffffffffffffffffffffffffffffffffff1614156121d8576040517f08c379a00000000000000000000000000000000000000000000000000000000081526004016121cf906146e0565b60405180910390fd5b6121e58383836001612a0c565b8273ffffffffffffffffffffffffffffffffffffffff16612205826113fd565b73ffffffffffffffffffffffffffffffffffffffff161461225b576040517f08c379a000000000000000000000000000000000000000000000000000000000815260040161225290614680565b60405180910390fd5b6004600082815260200190815260200160002060006101000a81549073ffffffffffffffffffffffffffffffffffffffff02191690556001600360008573ffffffffffffffffffffffffffffffffffffffff1673ffffffffffffffffffffffffffffffffffffffff168152602001908152602001600020600082825403925050819055506001600360008473ffffffffffffffffffffffffffffffffffffffff1673ffffffffffffffffffffffffffffffffffffffff16815260200190815260200160002060008282540192505081905550816002600083815260200190815260200160002060006101000a81548173ffffffffffffffffffffffffffffffffffffffff021916908373ffffffffffffffffffffffffffffffffffffffff160217905550808273ffffffffffffffffffffffffffffffffffffffff168473ffffffffffffffffffffffffffffffffffffffff167fddf252ad1be2c89b69c2b068fc378daa952ba7f163c4a11628f55a4df523b3ef60405160405180910390a46123e78383836001612a26565b505050565b6123f581612a2c565b50565b612400612a7f565b6001600b60006101000a81548160ff0219169083151502179055507f62e78cea01bee320cd4e420270b5ea74000d11b0c9f74754ebdbfc544b05a258612444611f9c565b604051612451919061451c565b60405180910390a1565b600081600001549050600081116124a7576040517f08c379a000000000000000000000000000000000000000000000000000000000815260040161249e90614620565b60405180910390fd5b6001810382600001819055505050565b60006002600083815260200190815260200160002060009054906101000a900473ffffffffffffffffffffffffffffffffffffffff169050919050565b600081600001549050919050565b6001816000016000828254019250508190555050565b612532828260405180602001604052806000815250612ac9565b5050565b61253f826129cb565b61257e576040517f08c379a000000000000000000000000000000000000000000000000000000000815260040161257590614780565b60405180910390fd5b80600a600084815260200190815260200160002090805190602001906125a5929190613a19565b505050565b8173ffffffffffffffffffffffffffffffffffffffff168373ffffffffffffffffffffffffffffffffffffffff161415612619576040517f08c379a000000000000000000000000000000000000000000000000000000000815260040161261090614700565b60405180910390fd5b80600560008573ffffffffffffffffffffffffffffffffffffffff1673ffffffffffffffffffffffffffffffffffffffff16815260200190815260200160002060008473ffffffffffffffffffffffffffffffffffffffff1673ffffffffffffffffffffffffffffffffffffffff16815260200190815260200160002060006101000a81548160ff0219169083151502179055508173ffffffffffffffffffffffffffffffffffffffff168373ffffffffffffffffffffffffffffffffffffffff167f17307eab39ab6107e8899845ad3d59bd9653f200f220920489ca2b5937696c318360405161270a9190614583565b60405180910390a3505050565b61271f612b24565b6000600b60006101000a81548160ff0219169083151502179055507f5db9ee0a495bf2e6ff9c91a7834c1ba4fdd244a5e8aa4e537bd38aeae4b073aa612763611f9c565b604051612770919061451c565b60405180910390a1565b6127858484846120f2565b61279184848484612b6d565b6127d0576040517f08c379a00000000000000000000000000000000000000000000000000000000081526004016127c790614640565b60405180910390fd5b50505050565b60606127e182611f51565b6000600a6000848152602001908152602001600020805461280190614ac2565b80601f016020809104026020016040519081016040528092919081815260200182805461282d90614ac2565b801561287a5780601f1061284f5761010080835404028352916020019161287a565b820191906000526020600020905b81548152906001019060200180831161285d57829003601f168201915b50505050509050600061288b612d04565b90506000815114156128a15781925050506128e4565b6000825111156128d65780826040516020016128be9291906144f8565b604051602081830303815290604052925050506128e4565b6128df84612d1b565b925050505b919050565b60007f80ac58cd000000000000000000000000000000000000000000000000000000007bffffffffffffffffffffffffffffffffffffffffffffffffffffffff1916827bffffffffffffffffffffffffffffffffffffffffffffffffffffffff191614806129b457507f5b5e139f000000000000000000000000000000000000000000000000000000007bffffffffffffffffffffffffffffffffffffffffffffffffffffffff1916827bffffffffffffffffffffffffffffffffffffffffffffffffffffffff1916145b806129c457506129c382612d83565b5b9050919050565b60008073ffffffffffffffffffffffffffffffffffffffff166129ed836124b7565b73ffffffffffffffffffffffffffffffffffffffff1614159050919050565b612a14612a7f565b612a2084848484612ded565b50505050565b50505050565b612a3581612f4d565b6000600a60008381526020019081526020016000208054612a5590614ac2565b905014612a7c57600a60008281526020019081526020016000206000612a7b9190613a9f565b5b50565b612a876113e6565b15612ac7576040517f08c379a0000000000000000000000000000000000000000000000000000000008152600401612abe90614740565b60405180910390fd5b565b612ad3838361309b565b612ae06000848484612b6d565b612b1f576040517f08c379a0000000000000000000000000000000000000000000000000000000008152600401612b1690614640565b60405180910390fd5b505050565b612b2c6113e6565b612b6b576040517f08c379a0000000000000000000000000000000000000000000000000000000008152600401612b62906145c0565b60405180910390fd5b565b6000612b8e8473ffffffffffffffffffffffffffffffffffffffff166132b9565b15612cf7578373ffffffffffffffffffffffffffffffffffffffff1663150b7a02612bb7611f9c565b8786866040518563ffffffff1660e01b8152600401612bd99493929190614537565b602060405180830381600087803b158015612bf357600080fd5b505af1925050508015612c2457506040513d601f19601f82011682018060405250810190612c219190613e05565b60015b612ca7573d8060008114612c54576040519150601f19603f3d011682016040523d82523d6000602084013e612c59565b606091505b50600081511415612c9f576040517f08c379a0000000000000000000000000000000000000000000000000000000008152600401612c9690614640565b60405180910390fd5b805181602001fd5b63150b7a0260e01b7bffffffffffffffffffffffffffffffffffffffffffffffffffffffff1916817bffffffffffffffffffffffffffffffffffffffffffffffffffffffff191614915050612cfc565b600190505b949350505050565b606060405180602001604052806000815250905090565b6060612d2682611f51565b6000612d30612d04565b90506000815111612d505760405180602001604052806000815250612d7b565b80612d5a846132dc565b604051602001612d6b9291906144f8565b6040516020818303038152906040525b915050919050565b60007f01ffc9a7000000000000000000000000000000000000000000000000000000007bffffffffffffffffffffffffffffffffffffffffffffffffffffffff1916827bffffffffffffffffffffffffffffffffffffffffffffffffffffffff1916149050919050565b612df984848484613400565b6001811115612e3d576040517f08c379a0000000000000000000000000000000000000000000000000000000008152600401612e3490614880565b60405180910390fd5b6000829050600073ffffffffffffffffffffffffffffffffffffffff168573ffffffffffffffffffffffffffffffffffffffff161415612e8557612e8081613406565b612ec4565b8373ffffffffffffffffffffffffffffffffffffffff168573ffffffffffffffffffffffffffffffffffffffff1614612ec357612ec2858261344f565b5b5b600073ffffffffffffffffffffffffffffffffffffffff168473ffffffffffffffffffffffffffffffffffffffff161415612f0757612f02816135bc565b612f46565b8473ffffffffffffffffffffffffffffffffffffffff168473ffffffffffffffffffffffffffffffffffffffff1614612f4557612f4484826136ff565b5b5b5050505050565b6000612f58826113fd565b9050612f68816000846001612a0c565b612f71826113fd565b90506004600083815260200190815260200160002060006101000a81549073ffffffffffffffffffffffffffffffffffffffff02191690556001600360008373ffffffffffffffffffffffffffffffffffffffff1673ffffffffffffffffffffffffffffffffffffffff168152602001908152602001600020600082825403925050819055506002600083815260200190815260200160002060006101000a81549073ffffffffffffffffffffffffffffffffffffffff021916905581600073ffffffffffffffffffffffffffffffffffffffff168273ffffffffffffffffffffffffffffffffffffffff167fddf252ad1be2c89b69c2b068fc378daa952ba7f163c4a11628f55a4df523b3ef60405160405180910390a4613097816000846001612a26565b5050565b600073ffffffffffffffffffffffffffffffffffffffff168273ffffffffffffffffffffffffffffffffffffffff16141561310b576040517f08c379a0000000000000000000000000000000000000000000000000000000008152600401613102906147a0565b60405180910390fd5b613114816129cb565b15613154576040517f08c379a000000000000000000000000000000000000000000000000000000000815260040161314b906146a0565b60405180910390fd5b613162600083836001612a0c565b61316b816129cb565b156131ab576040517f08c379a00000000000000000000000000000000000000000000000000000000081526004016131a2906146a0565b60405180910390fd5b6001600360008473ffffffffffffffffffffffffffffffffffffffff1673ffffffffffffffffffffffffffffffffffffffff16815260200190815260200160002060008282540192505081905550816002600083815260200190815260200160002060006101000a81548173ffffffffffffffffffffffffffffffffffffffff021916908373ffffffffffffffffffffffffffffffffffffffff160217905550808273ffffffffffffffffffffffffffffffffffffffff16600073ffffffffffffffffffffffffffffffffffffffff167fddf252ad1be2c89b69c2b068fc378daa952ba7f163c4a11628f55a4df523b3ef60405160405180910390a46132b5600083836001612a26565b5050565b6000808273ffffffffffffffffffffffffffffffffffffffff163b119050919050565b6060600060016132eb8461377e565b01905060008167ffffffffffffffff811115613330577f4e487b7100000000000000000000000000000000000000000000000000000000600052604160045260246000fd5b6040519080825280601f01601f1916602001820160405280156133625781602001600182028036833780820191505090505b509050600082602001820190505b6001156133f5578080600190039150507f3031323334353637383961626364656600000000000000000000000000000000600a86061a8153600a85816133df577f4e487b7100000000000000000000000000000000000000000000000000000000600052601260045260246000fd5b04945060008514156133f0576133f5565b613370565b819350505050919050565b50505050565b6008805490506009600083815260200190815260200160002081905550600881908060018154018082558091505060019003906000526020600020016000909190919091505550565b6000600161345c846117d6565b61346691906149d8565b905060006007600084815260200190815260200160002054905081811461354b576000600660008673ffffffffffffffffffffffffffffffffffffffff1673ffffffffffffffffffffffffffffffffffffffff168152602001908152602001600020600084815260200190815260200160002054905080600660008773ffffffffffffffffffffffffffffffffffffffff1673ffffffffffffffffffffffffffffffffffffffff168152602001908152602001600020600084815260200190815260200160002081905550816007600083815260200190815260200160002081905550505b6007600084815260200190815260200160002060009055600660008573ffffffffffffffffffffffffffffffffffffffff1673ffffffffffffffffffffffffffffffffffffffff16815260200190815260200160002060008381526020019081526020016000206000905550505050565b600060016008805490506135d091906149d8565b9050600060096000848152602001908152602001600020549050600060088381548110613626577f4e487b7100000000000000000000000000000000000000000000000000000000600052603260045260246000fd5b90600052602060002001549050806008838154811061366e577f4e487b7100000000000000000000000000000000000000000000000000000000600052603260045260246000fd5b9060005260206000200181905550816009600083815260200190815260200160002081905550600960008581526020019081526020016000206000905560088054806136e3577f4e487b7100000000000000000000000000000000000000000000000000000000600052603160045260246000fd5b6001900381819060005260206000200160009055905550505050565b600061370a836117d6565b905081600660008573ffffffffffffffffffffffffffffffffffffffff1673ffffffffffffffffffffffffffffffffffffffff168152602001908152602001600020600083815260200190815260200160002081905550806007600084815260200190815260200160002081905550505050565b600080600090507a184f03e93ff9f4daa797ed6e38ed64bf6a1f0100000000000000008310613802577a184f03e93ff9f4daa797ed6e38ed64bf6a1f01000000000000000083816137f8577f4e487b7100000000000000000000000000000000000000000000000000000000600052601260045260246000fd5b0492506040810190505b6d04ee2d6d415b85acef81000000008310613865576d04ee2d6d415b85acef8100000000838161385b577f4e487b7100000000000000000000000000000000000000000000000000000000600052601260045260246000fd5b0492506020810190505b662386f26fc1000083106138ba57662386f26fc1000083816138b0577f4e487b7100000000000000000000000000000000000000000000000000000000600052601260045260246000fd5b0492506010810190505b6305f5e1008310613909576305f5e10083816138ff577f4e487b7100000000000000000000000000000000000000000000000000000000600052601260045260246000fd5b0492506008810190505b612710831061395457612710838161394a577f4e487b7100000000000000000000000000000000000000000000000000000000600052601260045260246000fd5b0492506004810190505b6064831061399d5760648381613993577f4e487b7100000000000000000000000000000000000000000000000000000000600052601260045260246000fd5b0492506002810190505b600a83106139ac576001810190505b80915050919050565b60405180610120016040528060608152602001600073ffffffffffffffffffffffffffffffffffffffff1681526020016060815260200160008152602001600081526020016000151581526020016000815260200160008152602001606081525090565b828054613a2590614ac2565b90600052602060002090601f016020900481019282613a475760008555613a8e565b82601f10613a6057805160ff1916838001178555613a8e565b82800160010185558215613a8e579182015b82811115613a8d578251825591602001919060010190613a72565b5b509050613a9b9190613adf565b5090565b508054613aab90614ac2565b6000825580601f10613abd5750613adc565b601f016020900490600052602060002090810190613adb9190613adf565b5b50565b5b80821115613af8576000816000905550600101613ae0565b5090565b6000613b0f613b0a84614922565b6148fd565b905082815260208101848484011115613b2757600080fd5b613b32848285614a80565b509392505050565b6000613b4d613b4884614953565b6148fd565b905082815260208101848484011115613b6557600080fd5b613b70848285614a80565b509392505050565b600081359050613b878161513d565b92915050565b600081359050613b9c81615154565b92915050565b600081359050613bb18161516b565b92915050565b600081519050613bc68161516b565b92915050565b600082601f830112613bdd57600080fd5b8135613bed848260208601613afc565b91505092915050565b600082601f830112613c0757600080fd5b8135613c17848260208601613b3a565b91505092915050565b600081359050613c2f81615182565b92915050565b600060208284031215613c4757600080fd5b6000613c5584828501613b78565b91505092915050565b60008060408385031215613c7157600080fd5b6000613c7f85828601613b78565b9250506020613c9085828601613b78565b9150509250929050565b600080600060608486031215613caf57600080fd5b6000613cbd86828701613b78565b9350506020613cce86828701613b78565b9250506040613cdf86828701613c20565b9150509250925092565b60008060008060808587031215613cff57600080fd5b6000613d0d87828801613b78565b9450506020613d1e87828801613b78565b9350506040613d2f87828801613c20565b925050606085013567ffffffffffffffff811115613d4c57600080fd5b613d5887828801613bcc565b91505092959194509250565b60008060408385031215613d7757600080fd5b6000613d8585828601613b78565b9250506020613d9685828601613b8d565b9150509250929050565b60008060408385031215613db357600080fd5b6000613dc185828601613b78565b9250506020613dd285828601613c20565b9150509250929050565b600060208284031215613dee57600080fd5b6000613dfc84828501613ba2565b91505092915050565b600060208284031215613e1757600080fd5b6000613e2584828501613bb7565b91505092915050565b600060208284031215613e4057600080fd5b600082013567ffffffffffffffff811115613e5a57600080fd5b613e6684828501613bf6565b91505092915050565b600080600060608486031215613e8457600080fd5b600084013567ffffffffffffffff811115613e9e57600080fd5b613eaa86828701613bf6565b935050602084013567ffffffffffffffff811115613ec757600080fd5b613ed386828701613bf6565b925050604084013567ffffffffffffffff811115613ef057600080fd5b613efc86828701613bf6565b9150509250925092565b600060208284031215613f1857600080fd5b6000613f2684828501613c20565b91505092915050565b60008060408385031215613f4257600080fd5b6000613f5085828601613c20565b9250506020613f6185828601613b8d565b9150509250929050565b60008060408385031215613f7e57600080fd5b6000613f8c85828601613c20565b9250506020613f9d85828601613c20565b9150509250929050565b613fb081614a0c565b82525050565b613fbf81614a0c565b82525050565b613fce81614a1e565b82525050565b613fdd81614a1e565b82525050565b6000613fee82614984565b613ff8818561499a565b9350614008818560208601614a8f565b61401181614bb2565b840191505092915050565b60006140278261498f565b61403181856149ab565b9350614041818560208601614a8f565b61404a81614bb2565b840191505092915050565b60006140608261498f565b61406a81856149bc565b935061407a818560208601614a8f565b61408381614bb2565b840191505092915050565b60006140998261498f565b6140a381856149cd565b93506140b3818560208601614a8f565b80840191505092915050565b60006140cc6014836149bc565b91506140d782614bc3565b602082019050919050565b60006140ef602d836149bc565b91506140fa82614bec565b604082019050919050565b6000614112602b836149bc565b915061411d82614c3b565b604082019050919050565b6000614135601b836149bc565b915061414082614c8a565b602082019050919050565b60006141586032836149bc565b915061416382614cb3565b604082019050919050565b600061417b601e836149bc565b915061418682614d02565b602082019050919050565b600061419e6025836149bc565b91506141a982614d2b565b604082019050919050565b60006141c1601c836149bc565b91506141cc82614d7a565b602082019050919050565b60006141e46015836149bc565b91506141ef82614da3565b602082019050919050565b60006142076024836149bc565b915061421282614dcc565b604082019050919050565b600061422a6019836149bc565b915061423582614e1b565b602082019050919050565b600061424d601b836149bc565b915061425882614e44565b602082019050919050565b60006142706010836149bc565b915061427b82614e6d565b602082019050919050565b60006142936029836149bc565b915061429e82614e96565b604082019050919050565b60006142b6602e836149bc565b91506142c182614ee5565b604082019050919050565b60006142d96020836149bc565b91506142e482614f34565b602082019050919050565b60006142fc6017836149bc565b915061430782614f5d565b602082019050919050565b600061431f6018836149bc565b915061432a82614f86565b602082019050919050565b60006143426021836149bc565b915061434d82614faf565b604082019050919050565b60006143656017836149bc565b915061437082614ffe565b602082019050919050565b6000614388603d836149bc565b915061439382615027565b604082019050919050565b60006143ab602c836149bc565b91506143b682615076565b604082019050919050565b60006143ce6035836149bc565b91506143d9826150c5565b604082019050919050565b60006143f16013836149bc565b91506143fc82615114565b602082019050919050565b6000610120830160008301518482036000860152614425828261401c565b915050602083015161443a6020860182613fa7565b5060408301518482036040860152614452828261401c565b915050606083015161446760608601826144da565b50608083015161447a60808601826144da565b5060a083015161448d60a0860182613fc5565b5060c08301516144a060c08601826144da565b5060e08301516144b360e08601826144da565b506101008301518482036101008601526144cd828261401c565b9150508091505092915050565b6144e381614a76565b82525050565b6144f281614a76565b82525050565b6000614504828561408e565b9150614510828461408e565b91508190509392505050565b60006020820190506145316000830184613fb6565b92915050565b600060808201905061454c6000830187613fb6565b6145596020830186613fb6565b61456660408301856144e9565b81810360608301526145788184613fe3565b905095945050505050565b60006020820190506145986000830184613fd4565b92915050565b600060208201905081810360008301526145b88184614055565b905092915050565b600060208201905081810360008301526145d9816140bf565b9050919050565b600060208201905081810360008301526145f9816140e2565b9050919050565b6000602082019050818103600083015261461981614105565b9050919050565b6000602082019050818103600083015261463981614128565b9050919050565b600060208201905081810360008301526146598161414b565b9050919050565b600060208201905081810360008301526146798161416e565b9050919050565b6000602082019050818103600083015261469981614191565b9050919050565b600060208201905081810360008301526146b9816141b4565b9050919050565b600060208201905081810360008301526146d9816141d7565b9050919050565b600060208201905081810360008301526146f9816141fa565b9050919050565b600060208201905081810360008301526147198161421d565b9050919050565b6000602082019050818103600083015261473981614240565b9050919050565b6000602082019050818103600083015261475981614263565b9050919050565b6000602082019050818103600083015261477981614286565b9050919050565b60006020820190508181036000830152614799816142a9565b9050919050565b600060208201905081810360008301526147b9816142cc565b9050919050565b600060208201905081810360008301526147d9816142ef565b9050919050565b600060208201905081810360008301526147f981614312565b9050919050565b6000602082019050818103600083015261481981614335565b9050919050565b6000602082019050818103600083015261483981614358565b9050919050565b600060208201905081810360008301526148598161437b565b9050919050565b600060208201905081810360008301526148798161439e565b9050919050565b60006020820190508181036000830152614899816143c1565b9050919050565b600060208201905081810360008301526148b9816143e4565b9050919050565b600060208201905081810360008301526148da8184614407565b905092915050565b60006020820190506148f760008301846144e9565b92915050565b6000614907614918565b90506149138282614af4565b919050565b6000604051905090565b600067ffffffffffffffff82111561493d5761493c614b83565b5b61494682614bb2565b9050602081019050919050565b600067ffffffffffffffff82111561496e5761496d614b83565b5b61497782614bb2565b9050602081019050919050565b600081519050919050565b600081519050919050565b600082825260208201905092915050565b600082825260208201905092915050565b600082825260208201905092915050565b600081905092915050565b60006149e382614a76565b91506149ee83614a76565b925082821015614a0157614a00614b25565b5b828203905092915050565b6000614a1782614a56565b9050919050565b60008115159050919050565b60007fffffffff0000000000000000000000000000000000000000000000000000000082169050919050565b600073ffffffffffffffffffffffffffffffffffffffff82169050919050565b6000819050919050565b82818337600083830152505050565b60005b83811015614aad578082015181840152602081019050614a92565b83811115614abc576000848401525b50505050565b60006002820490506001821680614ada57607f821691505b60208210811415614aee57614aed614b54565b5b50919050565b614afd82614bb2565b810181811067ffffffffffffffff82111715614b1c57614b1b614b83565b5b80604052505050565b7f4e487b7100000000000000000000000000000000000000000000000000000000600052601160045260246000fd5b7f4e487b7100000000000000000000000000000000000000000000000000000000600052602260045260246000fd5b7f4e487b7100000000000000000000000000000000000000000000000000000000600052604160045260246000fd5b6000601f19601f8301169050919050565b7f5061757361626c653a206e6f7420706175736564000000000000000000000000600082015250565b7f4552433732313a2063616c6c6572206973206e6f7420746f6b656e206f776e6560008201527f72206f7220617070726f76656400000000000000000000000000000000000000602082015250565b7f455243373231456e756d657261626c653a206f776e657220696e646578206f7560008201527f74206f6620626f756e6473000000000000000000000000000000000000000000602082015250565b7f436f756e7465723a2064656372656d656e74206f766572666c6f770000000000600082015250565b7f4552433732313a207472616e7366657220746f206e6f6e20455243373231526560008201527f63656976657220696d706c656d656e7465720000000000000000000000000000602082015250565b7f506c65617365207375626d6974207468652061736b696e672070726963650000600082015250565b7f4552433732313a207472616e736665722066726f6d20696e636f72726563742060008201527f6f776e6572000000000000000000000000000000000000000000000000000000602082015250565b7f4552433732313a20746f6b656e20616c7265616479206d696e74656400000000600082015250565b7f4f6e6c79206f776e65722063616e20746f67676c650000000000000000000000600082015250565b7f4552433732313a207472616e7366657220746f20746865207a65726f2061646460008201527f7265737300000000000000000000000000000000000000000000000000000000602082015250565b7f4552433732313a20617070726f766520746f2063616c6c657200000000000000600082015250565b7f746865206974656d206973206e6f7420757020666f722073616c650000000000600082015250565b7f5061757361626c653a2070617573656400000000000000000000000000000000600082015250565b7f4552433732313a2061646472657373207a65726f206973206e6f74206120766160008201527f6c6964206f776e65720000000000000000000000000000000000000000000000602082015250565b7f45524337323155524953746f726167653a2055524920736574206f66206e6f6e60008201527f6578697374656e7420746f6b656e000000000000000000000000000000000000602082015250565b7f4552433732313a206d696e7420746f20746865207a65726f2061646472657373600082015250565b7f5573657220616c72656164792072656769737465726564000000000000000000600082015250565b7f4552433732313a20696e76616c696420746f6b656e2049440000000000000000600082015250565b7f4552433732313a20617070726f76616c20746f2063757272656e74206f776e6560008201527f7200000000000000000000000000000000000000000000000000000000000000602082015250565b7f796f7520616c7265616479206f776e20746865204e4654000000000000000000600082015250565b7f4552433732313a20617070726f76652063616c6c6572206973206e6f7420746f60008201527f6b656e206f776e6572206f7220617070726f76656420666f7220616c6c000000602082015250565b7f455243373231456e756d657261626c653a20676c6f62616c20696e646578206f60008201527f7574206f6620626f756e64730000000000000000000000000000000000000000602082015250565b7f455243373231456e756d657261626c653a20636f6e736563757469766520747260008201527f616e7366657273206e6f7420737570706f727465640000000000000000000000602082015250565b7f4f6e6c79206f776e65722063616e2073656c6c00000000000000000000000000600082015250565b61514681614a0c565b811461515157600080fd5b50565b61515d81614a1e565b811461516857600080fd5b50565b61517481614a2a565b811461517f57600080fd5b50565b61518b81614a76565b811461519657600080fd5b5056fea2646970667358221220468259b1fec32540e4be670ec92c5e0e937301562aec4761342df9ef2560c54064736f6c63430008010033",
  "immutableReferences": {},
  "source": "// SPDX-License-Identifier: MIT\npragma solidity 0.8.1;\n\nimport \"@openzeppelin/contracts/token/ERC721/ERC721.sol\";\nimport \"@openzeppelin/contracts/token/ERC721/extensions/ERC721Enumerable.sol\";\nimport \"@openzeppelin/contracts/token/ERC721/extensions/ERC721URIStorage.sol\";\nimport \"@openzeppelin/contracts/security/Pausable.sol\";\nimport \"@openzeppelin/contracts/token/ERC721/extensions/ERC721Burnable.sol\";\nimport \"@openzeppelin/contracts/utils/Counters.sol\";\n\ncontract PhotoSharingNFT is ERC721, ERC721Enumerable, ERC721URIStorage, Pausable, ERC721Burnable {\n    using Counters for Counters.Counter;\n\n\n    // define the structure of a post\n    struct Post {\n        string name;\n        address owner;\n        string uri;\n        uint tokenId;\n        uint price;\n        bool forSale;\n        uint uniqueScore;\n        uint timestamp;\n        string description;\n    }\n\n    // define the structure of a user\n    struct user {\n        string user_name;\n    }\n\n    address owner;\n\n    mapping (address=>user) users;\n    mapping (address=>uint) registration;\n    Post[] posts;\n\n    // modifiers defined \n    modifier onlyUser {\n        require(registration[msg.sender]==1);\n        _;\n    }\n\n    modifier onlyOwner {\n        require(msg.sender == owner);\n        _;\n    }\n\n    Counters.Counter private _tokenIdCounter;\n\n    constructor() ERC721(\"PhotoSharingNFT\", \"STK\") {\n        owner = msg.sender;\n        users[owner].user_name = \"admin\";\n        registration[owner]= 1;\n    }\n\n    // A new user has to register \n\n    function register(string memory name) public {\n        require(registration[msg.sender] != 1,'User already registered');\n        address usr = msg.sender;       \n        registration[usr]= 1;\n        users[usr].user_name = name;\n    }\n\n    function unregister() public {\n    address usr = msg.sender;       \n    registration[usr]= 0;\n    users[usr].user_name = \"\";\n    }\n\n    function getUsername()  public view returns(string memory){\n        if(registration[msg.sender] == 1){\n        return users[msg.sender].user_name;\n        }\n        return \"user not registered\";\n    }\n\n    // Owner can pause / unpause \n    function pauseContract() public onlyOwner {\n        _pause();\n    }\n    function unpauseContract() public onlyOwner {\n        _unpause();\n    }\n\n    // upload a new post, a user can upload the post by sending the uri of post metadata and name of the post\n    // the post is added to the posts list\n\n    function uploadPost(string memory uri,string memory name, string memory description) public onlyUser returns(uint256){\n         uint256 tokenId = _tokenIdCounter.current();\n        _tokenIdCounter.increment();\n        _safeMint(msg.sender, tokenId);\n        _setTokenURI(tokenId, uri);\n\n        Post memory newPost = Post(name,msg.sender,uri,tokenId,0,false,0,block.timestamp,description);\n\n        posts.push(newPost);\n\n        return tokenId;\n    }\n\n    // toggle the post for sale or not \n\n    function toggleSale(uint tokenId, bool val) public onlyUser {\n        require(msg.sender == posts[tokenId].owner,\"Only owner can toggle\");\n        posts[tokenId].forSale = val;\n    }\n\n    // the owner of the post can set the post for sale and set the selling amount \n\n    function sellNFT(uint tokenId, uint amt) public onlyUser {\n        require(msg.sender == posts[tokenId].owner,\"Only owner can sell\");\n        if(posts[tokenId].forSale == false) {\n            posts[tokenId].forSale = true;\n        }\n        posts[tokenId].price = amt;\n    }\n\n    // other registered users can buy the nft by sending in the amount\n    // the ownership if the token gets transfered to the buyer\n\n    function buyNFT(uint tokenId) payable public onlyUser {\n        require(msg.sender != posts[tokenId].owner,\"you already own the NFT\");\n        require(posts[tokenId].forSale = true,\"the item is not up for sale\");\n\n        uint price = posts[tokenId].price;\n        address owner_nft = ERC721.ownerOf(tokenId);\n        \n        require(msg.value == price, \"Please submit the asking price\");\n\n        posts[tokenId].forSale = false;\n        _tokenIdCounter.decrement();\n\n        _transfer(owner_nft, msg.sender, tokenId);\n        payable(owner_nft).transfer(msg.value);\n\n    }    \n\n    // increment and decrement the value \n    // an uniqueness scale value is assgned to each post which appreciates or depriciates the nft value \n    // A backed function assigns the value by evaluating the post with the other posts for uniqueness\n\n    function assignUniqueScore(uint unique_score, uint tokenId) public onlyOwner {\n        posts[tokenId].uniqueScore = unique_score;\n    }\n\n    // get all the data of a post given a token id\n\n    function getPostData(uint tokenId) view public returns (Post memory){\n         return(posts[tokenId]);\n    }\n\n    // returns the address of the owner\n\n    function getOwner(uint id) view public returns (address){\n        address owner_c = ERC721.ownerOf(id); \n        return owner_c;\n    }\n\n    function _beforeTokenTransfer(address from, address to, uint256 tokenId, uint256 batchSize)\n        internal\n        whenNotPaused\n        override(ERC721, ERC721Enumerable)\n    {\n        super._beforeTokenTransfer(from, to, tokenId, batchSize);\n    }\n\n\n    // The following functions are overrides required by Solidity.\n\n    // The NFT can be burnt by the owner \n    function _burn (uint256 tokenId) internal override(ERC721, ERC721URIStorage) {\n        super._burn(tokenId);\n    }\n\n    function tokenURI(uint256 tokenId)\n        public\n        view\n        override(ERC721, ERC721URIStorage)\n        returns (string memory)\n    {\n        return super.tokenURI(tokenId);\n    }\n\n    function supportsInterface(bytes4 interfaceId)\n        public\n        view\n        override(ERC721, ERC721Enumerable)\n        returns (bool)\n    {\n        return super.supportsInterface(interfaceId);\n    }\n}\n",
  "sourcePath": "/Users/solomon/development/blockchain/project_final/contracts/PhotoSharingNFT.sol",
  "compiler": {
    "name": "solc",
    "version": "0.8.1+commit.df193b15.Emscripten.clang"
  },
  "schemaVersion": "3.4.13",
  "updatedAt": "2023-04-26T05:27:39.099Z",
  "devdoc": {
    "kind": "dev",
    "methods": {
      "approve(address,uint256)": {
        "details": "See {IERC721-approve}."
      },
      "balanceOf(address)": {
        "details": "See {IERC721-balanceOf}."
      },
      "burn(uint256)": {
        "details": "Burns `tokenId`. See {ERC721-_burn}. Requirements: - The caller must own `tokenId` or be an approved operator."
      },
      "getApproved(uint256)": {
        "details": "See {IERC721-getApproved}."
      },
      "isApprovedForAll(address,address)": {
        "details": "See {IERC721-isApprovedForAll}."
      },
      "name()": {
        "details": "See {IERC721Metadata-name}."
      },
      "ownerOf(uint256)": {
        "details": "See {IERC721-ownerOf}."
      },
      "paused()": {
        "details": "Returns true if the contract is paused, and false otherwise."
      },
      "safeTransferFrom(address,address,uint256)": {
        "details": "See {IERC721-safeTransferFrom}."
      },
      "safeTransferFrom(address,address,uint256,bytes)": {
        "details": "See {IERC721-safeTransferFrom}."
      },
      "setApprovalForAll(address,bool)": {
        "details": "See {IERC721-setApprovalForAll}."
      },
      "symbol()": {
        "details": "See {IERC721Metadata-symbol}."
      },
      "tokenByIndex(uint256)": {
        "details": "See {IERC721Enumerable-tokenByIndex}."
      },
      "tokenOfOwnerByIndex(address,uint256)": {
        "details": "See {IERC721Enumerable-tokenOfOwnerByIndex}."
      },
      "totalSupply()": {
        "details": "See {IERC721Enumerable-totalSupply}."
      },
      "transferFrom(address,address,uint256)": {
        "details": "See {IERC721-transferFrom}."
      }
    },
    "version": 1
  },
  "userdoc": {
    "kind": "user",
    "methods": {},
    "version": 1
  }
}